{
  "contractName": "Election",
  "abi": [
    {
      "inputs": [],
      "stateMutability": "nonpayable",
      "type": "constructor"
    },
    {
      "anonymous": false,
      "inputs": [
        {
          "indexed": false,
          "internalType": "address",
          "name": "_voter",
          "type": "address"
        },
        {
          "indexed": true,
          "internalType": "string",
          "name": "_candidentName",
          "type": "string"
        },
        {
          "indexed": true,
          "internalType": "uint256",
          "name": "_candidentId",
          "type": "uint256"
        },
        {
          "indexed": true,
          "internalType": "uint256",
          "name": "voting",
          "type": "uint256"
        }
      ],
      "name": "voting",
      "type": "event"
    },
    {
      "inputs": [
        {
          "internalType": "uint256",
          "name": "",
          "type": "uint256"
        }
      ],
      "name": "candidates",
      "outputs": [
        {
          "internalType": "uint256",
          "name": "id",
          "type": "uint256"
        },
        {
          "internalType": "string",
          "name": "name",
          "type": "string"
        },
        {
          "internalType": "uint256",
          "name": "votersNum",
          "type": "uint256"
        }
      ],
      "stateMutability": "view",
      "type": "function",
      "constant": true
    },
    {
      "inputs": [
        {
          "internalType": "address",
          "name": "",
          "type": "address"
        }
      ],
      "name": "voters",
      "outputs": [
        {
          "internalType": "bool",
          "name": "",
          "type": "bool"
        }
      ],
      "stateMutability": "view",
      "type": "function",
      "constant": true
    },
    {
      "inputs": [],
      "name": "getMsgSender",
      "outputs": [
        {
          "internalType": "address",
          "name": "",
          "type": "address"
        }
      ],
      "stateMutability": "view",
      "type": "function",
      "constant": true
    },
    {
      "inputs": [],
      "name": "getNumOfCandidate",
      "outputs": [
        {
          "internalType": "uint256",
          "name": "",
          "type": "uint256"
        }
      ],
      "stateMutability": "view",
      "type": "function",
      "constant": true
    },
    {
      "inputs": [],
      "name": "getNumOfVoters",
      "outputs": [
        {
          "internalType": "uint256",
          "name": "",
          "type": "uint256"
        }
      ],
      "stateMutability": "view",
      "type": "function",
      "constant": true
    },
    {
      "inputs": [
        {
          "internalType": "uint256",
          "name": "_id",
          "type": "uint256"
        }
      ],
      "name": "voteToCandidate",
      "outputs": [],
      "stateMutability": "nonpayable",
      "type": "function"
    }
  ],
  "bytecode": "0x608060405234801561001057600080fd5b506100576040518060400160405280600d81526020017f79617a616e616c7368617269660000000000000000000000000000000000000081525060006100a260201b60201c565b61009d6040518060400160405280600d81526020017f7175736169616c7368617269660000000000000000000000000000000000000081525060006100a260201b60201c565b61033b565b60008090505b6000548110156101d357610170600160008381526020019081526020016000206001018054600181600116156101000203166002900480601f01602080910402602001604051908101604052809291908181526020018280546001816001161561010002031660029004801561015f5780601f106101345761010080835404028352916020019161015f565b820191906000526020600020905b81548152906001019060200180831161014257829003601f168201915b50505050508461025a60201b60201c565b156101c6576040517f08c379a0000000000000000000000000000000000000000000000000000000008152600401808060200182810382526021815260200180610a4a6021913960400191505060405180910390fd5b80806001019150506100a8565b506101dc610275565b60405180606001604052806000548152602001848152602001838152509050806001600080548152602001908152602001600020600082015181600001556020820151816001019080519060200190610236929190610296565b50604082015181600201559050506000808154809291906001019190505550505050565b60008180519060200120838051906020012014905092915050565b60405180606001604052806000815260200160608152602001600081525090565b828054600181600116156101000203166002900490600052602060002090601f016020900481019282601f106102d757805160ff1916838001178555610305565b82800160010185558215610305579182015b828111156103045782518255916020019190600101906102e9565b5b5090506103129190610316565b5090565b61033891905b8082111561033457600081600090555060010161031c565b5090565b90565b6107008061034a6000396000f3fe608060405234801561001057600080fd5b50600436106100625760003560e01c80633477ee2e1461006757806356be16581461011c57806365fc783c1461014a5780637a6ce2e114610168578063a3ec138d146101b2578063f4fc4b1f1461020e575b600080fd5b6100936004803603602081101561007d57600080fd5b810190808035906020019092919050505061022c565b6040518084815260200180602001838152602001828103825284818151815260200191508051906020019080838360005b838110156100df5780820151818401526020810190506100c4565b50505050905090810190601f16801561010c5780820380516001836020036101000a031916815260200191505b5094505050505060405180910390f35b6101486004803603602081101561013257600080fd5b81019080803590602001909291905050506102ee565b005b610152610674565b6040518082815260200191505060405180910390f35b61017061067e565b604051808273ffffffffffffffffffffffffffffffffffffffff1673ffffffffffffffffffffffffffffffffffffffff16815260200191505060405180910390f35b6101f4600480360360208110156101c857600080fd5b81019080803573ffffffffffffffffffffffffffffffffffffffff169060200190929190505050610686565b604051808215151515815260200191505060405180910390f35b6102166106a6565b6040518082815260200191505060405180910390f35b6001602052806000526040600020600091509050806000015490806001018054600181600116156101000203166002900480601f0160208091040260200160405190810160405280929190818152602001828054600181600116156101000203166002900480156102de5780601f106102b3576101008083540402835291602001916102de565b820191906000526020600020905b8154815290600101906020018083116102c157829003601f168201915b5050505050908060020154905083565b600360003373ffffffffffffffffffffffffffffffffffffffff1673ffffffffffffffffffffffffffffffffffffffff16815260200190815260200160002060009054906101000a900460ff16156103ae576040517f08c379a00000000000000000000000000000000000000000000000000000000081526004018080602001828103825260108152602001807f796f7520616c726561647920766f74650000000000000000000000000000000081525060200191505060405180910390fd5b610475600160008381526020019081526020016000206001018054600181600116156101000203166002900480601f01602080910402602001604051908101604052809291908181526020018280546001816001161561010002031660029004801561045b5780601f106104305761010080835404028352916020019161045b565b820191906000526020600020905b81548152906001019060200180831161043e57829003601f168201915b5050505050604051806020016040528060008152506106af565b156104e8576040517f08c379a000000000000000000000000000000000000000000000000000000000815260040180806020018281038252601a8152602001807f7468652063616e64696461746520646f6573277420666f756e6400000000000081525060200191505060405180910390fd5b60016000828152602001908152602001600020600201600081548092919060010191905055506001600360003373ffffffffffffffffffffffffffffffffffffffff1673ffffffffffffffffffffffffffffffffffffffff16815260200190815260200160002060006101000a81548160ff0219169083151502179055506002600081548092919060010191905055506001600082815260200190815260200160002060020154816001600084815260200190815260200160002060010160405180828054600181600116156101000203166002900480156106015780601f106105df576101008083540402835291820191610601565b820191906000526020600020905b8154815290600101906020018083116105ed575b505091505060405180910390207f38390551d1080f58308933c76197fa5e3ab0b3d360b32edf2ba4305b9ae442d533604051808273ffffffffffffffffffffffffffffffffffffffff1673ffffffffffffffffffffffffffffffffffffffff16815260200191505060405180910390a450565b6000600254905090565b600033905090565b60036020528060005260406000206000915054906101000a900460ff1681565b60008054905090565b6000818051906020012083805190602001201490509291505056fea26469706673582212208179f7ed87ccbe4ab61753284d1139bbf84633f6a87004de64e8f35c46e7f25c64736f6c634300060a00337468652063616e64696461746520696420697320616c7265616479206578697374",
  "immutableReferences": {},
  "source": "pragma solidity ^0.6.10;\r\n\r\ncontract Election {\r\n    //the id, name , voters of candidate\r\n    struct Candidate{\r\n        uint id;\r\n        string name;\r\n        uint votersNum;\r\n    }\r\n    //the counter of candidate\r\n    uint  numOfCandidate;\r\n    //mapping the cadidates\r\n    mapping(uint => Candidate) public candidates;\r\n    //the conter of voters\r\n    uint numOfVoters;\r\n    //the voters address and to who vote\r\n    mapping(address => bool) public voters;\r\n    //events voting\r\n    event voting(address  _voter, string  indexed _candidentName, uint indexed _candidentId, uint indexed voting);\r\n    //constructor to create twe candidate here\r\n    constructor () public {\r\n        determineCandidate(\"yazanalsharif\", 0);\r\n        determineCandidate(\"qusaialsharif\", 0);\r\n    }\r\n    function getMsgSender() public view returns(address) {\r\n        return msg.sender;\r\n    }\r\n    //get number of candidate\r\n    function getNumOfCandidate() public view returns(uint) {\r\n        return numOfCandidate;\r\n    }\r\n    //get number of Voter\r\n    function getNumOfVoters() public view returns(uint) {\r\n        return numOfVoters;\r\n    }\r\n    //internal function to create candidate\r\n    function determineCandidate(string memory _name, uint _voting) internal {\r\n        for(uint i = 0; i < numOfCandidate; i++) {\r\n            if(toCompareString(candidates[i].name, _name)){\r\n                revert(\"the candidate id is already exist\");\r\n            }\r\n        }\r\n         Candidate memory candidate = Candidate(numOfCandidate, _name, _voting);\r\n         candidates[numOfCandidate] = candidate;\r\n         numOfCandidate++;\r\n    }\r\n    //to compare  strings\r\n     function toCompareString(string memory first, string memory secound) internal pure returns(bool) {\r\n        return keccak256(bytes(first)) == keccak256(bytes(secound));// explain this statment\r\n    }\r\n    //vote for specific candidate\r\n    function voteToCandidate(uint _id) public {\r\n        require(!voters[msg.sender], \"you already vote\");\r\n        require(!toCompareString(candidates[_id].name, \"\"), \"the candidate does't found\");\r\n        candidates[_id].votersNum++;\r\n        voters[msg.sender] = true;\r\n        numOfVoters++;\r\n        emit voting(msg.sender,candidates[_id].name, _id, candidates[_id].votersNum);\r\n    }\r\n}\r\n\r\n",
  "sourcePath": "E:\\blockchainDeveloper\\resoursesFromCourse\\election project\\contracts\\Election.sol",
  "compiler": {
    "name": "solc",
    "version": "0.6.10+commit.00c0fcaf.Emscripten.clang"
  },
  "schemaVersion": "3.2.0",
  "updatedAt": "2020-07-23T17:03:24.916Z",
  "networkType": "ethereum",
  "devdoc": {
    "methods": {}
  },
  "userdoc": {
    "methods": {}
  }
}